:101D3C00312E4B6579426F61726400322E4D757392
:101D4C006963506C617900332E436C6F636B536520
:101D5C007400342E416C61726D536574004861726D
:101D6C007568696B616765004B6565702057616CC0
:101D7C006B696E67004747420054776F2042757459
:101D8C00746572666C696573004F72636869642070
:101D9C0047726173730054686520436F6F6C657391
:101DAC0074204574686E6963205472656E64004DCE
:101DBC0061696E204D656E7500446F005265004D73
:101DCC006900466100536F6C004C6100536900530D
:101DDC00657421004B6579426F617264204D6F64AC
:101DEC0065004D757369633A00416C61726D5365A2
:101DFC0074204D6F64650015030000160300001776
:101E0C0003000018030000190300001A0300001B54
:031E1C00030000C0
:10000E0001400008421D3C1D471D531D5E014B045F
:10001E00C101C1000126000C331D691D741D811D17
:10002E00851D951DA20C270404006601CE026203F5
:10003E00A808AC014A06014101022100000123007B
:06004E0001241E01250241
:1023B400753F051227A27B007A00794C121E1F126A
:1023C400250112275912228612117B3001FAE53FAA
:1023D400640570F4FB7A00794C1222E17B007A00E8
:0923E400794C121EECC20180DFED
:0300630002213146
:10213100C0E0C0F0C083C082C0D075D000C000C074
:0D21410001C002C003C004C005C006C007F5
:10214E000522E52270020521646345217006D20145
:10215E00F521F522E53F6402702B0523D3E5239488
:10216E001874809480401EAF411221AED3E52394A3
:10217E003174809480400E7B007A00794CAF41120E
:05218E001C4A7523004E
:10219300D007D006D005D004D003D002D001D000A0
:0B21A300D0D0D082D083D0F0D0E0324A
:1025DF00E4FDFCC3ED9FEC9E5015E4FBFA0BBB0032
:0F25EF00010ABA04F8BBB0F50DBD00010C80E481
:0125FE0022BA
:10117B00121B128F53EF7003021442E53F6404708D
:10118B00030213A7EF64107023753F047BFF7A1DD6
:10119B0079BB7F80122378E54025E02442F8E6FEF8
:1011AB0008E6AA06F97BFF7FC0122378E53F603380
:1011BB001470030212AC14700302130F14700302A9
:1011CB00130B24FE6003021442E553640F60030209
:1011DB001442753F047BFF7A1D79BB7F8012237805
:1011EB000213E2E55324FAB40900400302144290BF
:1011FB00120875F003A4C58325F0C583730212672B
:10120B00021278021289021234021245021256029D
:10121B0014420214420212237BFF7A1D79C57FC050
:10122B001223787E1E7F0380647BFF7A1D79C87F33
:10123B00C01223787E1E7F0780537BFF7A1D79CBEC
:10124B007FC01223787E1E7F0B80427BFF7A1D7935
:10125B00CE7FC01223787E1E7F0F80317BFF7A1DDD
:10126B0079D17FC01223787E1E7F1380207BFF7A7B
:10127B001D79D57FC01223787E1E7F17800F7BFFD1
:10128B007A1D79D87FC01223787E1E7F1BE525FB44
:10129B003395E0FA75590085245AD202E4FD020E0B
:1012AB0004E55324F3602324FE603324036003021C
:1012BB001442D3E5269400748094804005152602D1
:1012CB001413E54A14F526021413E54A14FFE52618
:1012DB00C39F500405268003E4F526021413D200A5
:1012EB00E52625E02427F8E6FE08E6FF755900758C
:1012FB005A36D2027B027A00E4FD120E04C200229F
:10130B00753F0322E55324F7605214605924FD60A6
:10131B002B24FE606924036003021442D3E541943D
:10132B0001748094807B007A00794CAF41400612A7
:10133B001C4A154122121C4A75410722C3E54194F0
:10134B0007748094807B007A00794CAF4150061271
:10135B001C4A054122121C4A754101227B007A006E
:10136B00794CD20280087B007A00794CC202AF41E3
:10137B001216E87B007A00794CAF41021C4A7B00C5
:10138B007A00794C1220B37BFF7A1D79DB7F8C12AC
:10139B0023787F2C7E011225DF02142EE55324F3D4
:1013AB00602424FE603D1460362404600302144262
:1013BB00D3E540940074809480400415408005E58B
:1013CB004B14F5408011E54B14FFE540C39F5004CF
:1013DB0005408003E4F540E54025E02442802F756D
:1013EB003F052285403FE53F14601214602C1460CA
:1013FB003B240370427BFF7A1D79E080357BFF7ABB
:10140B001D79EE7F80122378E52625E02433F8E65C
:10141B00FE08E6AA06F97BFF80187B007A00794C60
:10142B001222E17B007A00794C021EEC7BFF7A1DC5
:07143B0079F57FC012237850
:011442002287
:1000660017021703180319021503160317031703BC
:1000760017031803190216031703180218031703A8
:1000860015021803170318021003150316021503A9
:10009600160317021703180319021A031B031F037B
:1000A6001F03170318031902160317031803170370
:1000B60018031F031F021603170318031703180359
:1000C600200320021F031B031F66200321032003B6
:1000D6001F031B031F661F031B03190319031503C5
:1000E6001A661A0319031503150317031666170470
:1000F6001804180319031F031B031F66200321039B
:1001060020031F031B031F661F031B031903190389
:1001160015031A661A03190319031F031B031F008D
:100126001A031A031A031B031B031A0319031902E2
:100136001703151715031603170318031704180ECC
:1001460018031704180E1866170318031703180365
:10015600200320021F031B031F6620032103200325
:100166001F031B031F661F041B0E1B031903190322
:1001760015031A661A0319031503150317031666E2
:1001860017041804180319031F031B031F66200313
:10019600210320031F031B031F661F031B031903F1
:1001A600190315031A661A03190319031F031B0300
:1001B6001F00180218031A03190D150315021866F5
:1001C6001602170215000000170217021702150281
:1001D60017031802170D170317031803170316033F
:1001E60016661A021603160D1616190219021902B8
:1001F600160219031A0D1903190219031A03190312
:1002060018031802180319031802170D17161702F8
:1002160017021702150217031802170D1703170303
:10022600180317031603160216031A021603160DF1
:100236001616190219021902160219031A0D1903C4
:10024600190219031A031B031F031F661B031B0254
:100256001F0D1F1519031A031B03000017031603AE
:1002660017011603170316031501100315031602CB
:10027600160D1703160315031003100E15040F01B0
:1002860017031603170116031703160315011003A8
:1002960015031602160D170316031503100315038F
:1002A6001601170316031701160317031603150184
:1002B600100315031602160D170316031503100374
:1002C600100E15040F0117031903190119031A0358
:1002D60019031701160316031602160D1703160344
:1002E60015031003100D1500190319031A031F0334
:1002F6001B031B031A03170D16031603160D17010E
:100306001703170319031A021A021003170D16030F
:100316001601170319031903170319021F021B03FA
:100326001A031A0E1B0417021A031A031A0E1B04C9
:100336001A03190317031603170D160317031901DA
:10034600190319031A031F031B031B031A03170DB3
:1003560016031603160317011703170319031A02C8
:100366001A021003170D16031601170319031903B2
:10037600170319031F021B031A031A0E1B04170285
:100386001A031A031A0E1B0417161A031A031A0E57
:100396001B041A031903170316030F021003150093
:1003A60000001003170317031703177016031567CA
:1003B60016041503110310011A031A031A031A036C
:1003C6001A7019031703190319671803170117037E
:1003D6001A031A03190317701603150316031503D8
:1003E6001103100C0D020D031503150311031070F4
:1003F60017031667150411030F03101500001702E3
:100406001603150216031767180417031666170254
:100416001603150216031767180417031666170244
:100426001603150216031767180417031666170234
:1004360016031502160317671804170316020F048E
:100446000F041703170316031803170316031603DF
:10045600160315041504180317031603160D1503C2
:1004660015041604177A170319031F041F041B0229
:100476001F031B021F031B041A0419171903160373
:1004860018031802170317170F0318031703160389
:1004960017021903157A15031603156715041503B4
:1004A6001903150318021703160D15031503157AFC
:1004B6001504160417031703160318031703160368
:1004C600160316031503180317031603160D150353
:1004D6001504160417701716170319031F031B02BA
:1004E6001F031B021F031B041A0419171903160303
:1004F600180318031703170317170F031803170317
:1005060016031702190315701502150415041603B0
:1005160015171503190315031803180418041704EF
:100526001604160D15031503156615661A03190329
:1005360019031903180318031703160316031602E3
:1005460019031903180418041803180317031603CC
:10055600160D15031504110415661A03190319035C
:1005660019031803180317031603160316021703B5
:1005760017031704170417041704170316031703A2
:1005860020021F031F171F031B021A031A7A1A03DE
:100596001A03190318041804180C1703170418046F
:1005A600190C197A170416041704160417041804EC
:1005B6001917180419041A171A041B041F17210403
:1005C600200419160F041903180318031702170439
:1005D6001804191617041604170416041704180429
:1005E6001917180419041A1719041A041B171704E3
:1005F60021032117170422032103200320671F0468
:100606001F0425041F171904200420021F031F17A7
:10061600190320021F031F1723041F04200D1F03A5
:100626001F031F1719041F042067210420031F1727
:100636001F031B0D1A031A031A17190319021803AD
:10064600180317031603177A17031803170318035B
:10065600170316031570157A1504160417031703E6
:1006660016031803170316031603160315041504B9
:100676001803170316031667160415041604177ACB
:10068600170319031F031B021F031B021F031B046F
:100696001A04191719031603180318031703170367
:1006A60017171803170316031702190315661517EC
:1006B6001504150416031517150319031503180257
:1006C600170316021503157A1A03190319031903DA
:1006D6001803180317031603160316021903190342
:1006E600180418041803180317031603160D150328
:1006F6001504110415661A031903190319031803BF
:100706001803170316031603160217031703170415
:1007160017041704170417031603170320021F03F1
:100726001F171F031B021A031A7A1A031A03190347
:1007360018041804180C170317041804190C197A4E
:1007460020041F041F041F041F041F0420671F1713
:1007560020041F041F041F041F041F0420031F037B
:100766001F0424041903210C217820041F041F04EC
:100776001F041F041F0420671F1720041F041F04E3
:100786001F041F041F0420031F031F04240419034E
:100796002102200320162004200420031904190432
:1007A60020021F031F161F031F041B041F031F0421
:1007B6001F0420031F032004200E1F7B2003200498
:1007C6001F04200320042004210320032102220306
:1007D600210A210017041604170416041704180426
:1007E6001917180419041A171A041B041F172104D1
:1007F600200419160F041903180318031702170407
:1008060018041916170416041704160417041804F6
:100816001917180419041A1719041A041B171704B0
:1008260021032117170422032103200320671F0435
:100836001F0425041F171904200420021F031F1775
:10084600190320021F031F1723041F04200D1F0373
:100856001F031F1719041F042067210420031F17F5
:100866001F031B0D1A031A031A171903190218037B
:10087600180317031603177A170318031703180329
:1008860017031603156615661803180219021F03C7
:100896001F711F171F0320031F0320031F032003BD
:1008A6001F001F7A0000170210031003150217021B
:1008B6001603160417041603150316031503100270
:1008C6001702100310031502170219031604170462
:1008D600160315031603150311030F03170210035E
:1008E6001003150217021603160417041603150340
:1008F6001603150310030F03170210031003150246
:10090600170219031703100210030F031002100336
:1009160015031502160D15031001150215030F0315
:100926001503160317031903190D170316021701EA
:100936001A031A031A0319031703170215031003E0
:1009460010031003170316011703170319031703E0
:10095600160317031603150310020F0210011002E7
:1009660010030F031002100315031502160D1503CD
:100976001001150215030F031503160317031903B8
:10098600190D1703160217011A031A031A0319037E
:10099600170317021503100310031003170316019C
:1009A6001703170319031703160317031603150373
:1009B60010020F02100117671704190317031767B0
:1009C600190419031A031A0219021A011002100354
:1009D6000F0310021502160317031503160317015A
:1009E60017031A031A03190317031603150316032D
:1009F60017001502100310031602106710041703E0
:100A060019031703160315701003100315031603B5
:100A160017031603150310030F031000100210032B
:100A26000F03100215021603170315031603170109
:100A360017031A031A0319031703160315031603DC
:100A4600170015021003100316021067100417038F
:100A5600190317031603157015031003150317035F
:100A660019031703170319031A011A011A671A043F
:100A76001A031A031A671904170D160316671604C4
:100A86001767190417671604156710041002100378
:100A96000F031002100315031603170E1604150391
:100AA600160317011A03190317031603190317036D
:100AB600160315031501100210030F03100210038D
:100AC60015031502160D15031001150215030F0364
:100AD6001503160317031903190D17031602170139
:100AE6001A031A031A03190317031702150310032F
:100AF600100310031703160117031703190317032F
:100B0600160317031603150310020F021001100235
:100B160010030F031002100315031502160D15031B
:100B26001001150215030F03150316031703190306
:100B3600190D1703160217011A031A031A031903CC
:100B460017031702150310031003100317031601EA
:100B560017031703190317031603170316031503C1
:100B660010020F02100117671704190317031767FE
:100B7600190419031A031A0219021A0110021003A2
:100B86000F031002150216031703150316031701A8
:100B960017031A031A03190317031603150316037B
:100BA600170015021003100316021067100417032E
:100BB6001903170316031570100310031503160304
:100BC60017031603150310030F031000100210037A
:100BD6000F03100215021603170315031603170158
:100BE60017031A031A03190317031603150316032B
:100BF60017001502100310031602106710041703DE
:100C060019031703160315701503100315031703AD
:100C160019031703170319031A011A011767170493
:100C2600190317031767190419031A031A0219027D
:100C36001A01100210030F03100215021603170300
:100C460015031603170117031A031A0319031703CB
:100C560016031503160317001502100310031602D8
:100C660010671004170319031703160315701003F2
:100C760010031503160317031603150310030F03BA
:100C86001000100210030F031002150216031703BB
:100C960015031603170117031A031A03190317037B
:100CA6001603150316031700150210031003160288
:100CB600106710041703190317031603157015039D
:100CC60010031503170319031703170319031A0152
:100CD6001A011702106710041502100317041004F6
:100CE60015671504160315041604170117021A676B
:100CF6001A041902166716041701170416041504B8
:100D060010040D040C040D040F0415021003100446
:100D160016020F670F040D020F670F04150110026C
:100D26001567100417671704166717041A011A01C6
:100D3600100210030F031002150216031703150302
:100D46001603170117031A031A03190317031603C9
:100D56001503160317001502100310031602106779
:100D66001004170319031703160315701003100355
:100D76001503160317031603150310030F031000BC
:100D8600100210030F0310021502160317031503B2
:100D96001603170117031A031A0319031703160379
:100DA6001503160317001502100310031602106729
:100DB6001004170319031703160315701503100300
:100DC6001503170319031703170319031A011A0149
:100DD60000000106011501260137014A015D017176
:100DE6000188019F01B801D201EE0002040507093E
:0E0DF6000B0102040810204030303A3030006B
:0800540002150000020F00007C
:04221B008E718F72BF
:10221F0078737C007D007BFF7A0D79FE7E007F0650
:10222F00121513AE71AF727C007D3C1215C57C0088
:10223F007D641215C5AB05AE71AF727C007D3C128B
:10224F0015C5AF05EB75F00A842430F573EB75F007
:10225F000A84E5F02430F574EF75F00A842430F524
:10226F0076EF75F00A84E5F02430F5777B007A007D
:07227F0079737F85022378CB
:0E25FF00781AE6F58D781CE6F58B0570C28F14
:10260D00121B12EF640F7008121B12EF70FAD32217
:02261D00C322D6
:10250100D296781A76DC781C7600758911438E8014
:10251100538EBF781AE6F58D781CE6F58BD2A9C2E9
:07252100ABC28CC28ED2AFE9
:012528002290
:03000B000226D8F2
:1026D800C0E0C0D075D000C000B2967817E6F58C7F
:0C26E800781BE6F58AD000D0D0D0E0329C
:080003007818E6FE08E6FF2272
:07279400E47818F608F622B4
:0A0E04008E548F558D568A578B5877
:100E0E00E4F570200203021105E4F568F569E55575
:100E1E002569F582E5543568F583E493600D740217
:100E2E002569F569E43568F56880E3D3E5699408CA
:100E3E00E56894004003D38001C39203E555651025
:100E4E007004E554650F600C85540F855510E478D9
:100E5E0015F608F6C37816E6956918E69568400407
:100E6E00E4F608F67816E61846700D7818F608F6C9
:100E7E00300305FFFE12221B7815E6F55C08E6F539
:100E8E005D2555F582E554355CF583E493F56AE509
:100E9E005D2401FFE4355CFEE5552FF582E5543EF9
:100EAE00F583E493F56BAC59AD5A7E2E7FE01215A7
:100EBE00C58E5E8F5FE55F7802CEC313CE13D8F971
:100ECE00F5658E647802C333CE33CED8F9FF7C003D
:100EDE007D051215C5C3E5659FF565E5649EF56450
:100EEE00C28CD28EC3E55D9569E55C9568400302C0
:100EFE00116E12260D500A7815A65C08A65D021119
:100F0E0005E56A75F00A8485F06CE56A75F00A8469
:100F1E0075F00A84ADF0E56A75F06484FFE56C70D7
:100F2E0003021010900DEF932FFFE556FBEF2BFBF6
:100F3E00E433FAD3EB940BEA64809480E556401ABE
:100F4E002F25E024C0F582E4340DF583740193253A
:100F5E00E0F567E49333F56680152F25E024D8F588
:100F6E0082E4340DF583E493F566740193F567E539
:100F7E005864014557700FAE66E5677802CEC3130D
:100F8E00CE13D8F98015E558640345577011AE6637
:100F9E00E5677802C333CE33CED8F9F5678E66EDAA
:100FAE00FB7A0064017011AE66E5677802CEC3135A
:100FBE00CE13D8F9F5678E66EB64034A7011AE66F0
:100FCE00E5677802C333CE33CED8F9F5678E66AEB9
:100FDE0066AF67AB07AA06E4F9F8FF7EC07DA8FCF2
:100FEE00121656E47B02FAF9F8121656C3E49FFF66
:100FFE00E49EAD07FF7817F6AE05781BEEF68F8CE4
:10100E00F58AE56B75F00A84E5F0900DF793F56DB2
:10101E00E56B75F00A8475F00A8485F06EE56B75E4
:10102E00F06484F56FE56DFD7C00AE5EAF5F12156A
:10103E00C5AB07AA06E56F6401700BEAC313FEEB9E
:10104E00132BFBEE3AFAAF6EEF64016040EF703295
:10105E00D3E56D940474809480500DC3EB9565F5C3
:10106E0061EA9564F5608029AE02EB7802C333CE57
:10107E0033CED8F9FF7C007D051215C58E608F61C9
:10108E00800FEAC313F560EB13F56180048A608B61
:10109E0061AF6C7E00EF7004F560F561C3EB956196
:1010AE00F563EA9560F562EF4E6025D28C85615B43
:1010BE00D3E55B9400748094804015308FFD12252B
:1010CE00FF50097815A65C08A65D802B155B80E0A5
:1010DE00E5634562602CC28CD29685635BD3E55B7B
:1010EE00940074809480401A308FFD1225FF500EAC
:1010FE007815A65C08A65DC28CC28ED29622155BB0
:10110E0080DB7402255DF55DE4355CF55CFEE5552E
:10111E00255DF582E5543EF583E493F56AE55D249D
:10112E0001FFE4355CFEE5552FF582E5543EF5836F
:10113E00E493F56BC3E5709463748094805003025E
:10114E000EF2E4F570781906E61870010620030316
:10115E00020EF27818E6FE08E6FF12221B020EF2CD
:0C116E00E47815F608F6D296C28CC28E0A
:01117A002252
:07279B0000300802010117E4
:10252900AD07C2C47F017E00122543C2A17F017E8F
:0A25390000122543D2C47F017E008A
:0E254300EF1FAC0670011E4C60030080F322F7
:10255100E4FDFBEBC39408748094805017C2A11270
:10256100253FEDC313FD30A203430580D2A11225FF
:062571003F0B80DFAF0507
:012577002241
:02241E00AD0708
:10242000E4FBEBC39408748094805020AA05C2A1F9
:1024300012253FEA540164017004D2A28002C2A2B4
:0C244000D2A1EDC313FD12253F0B80D686
:01244C00226D
:10261F00AB54AA55A956EF12159105570557AF5749
:0F262F00122529AF0512241E122551D2A1C2C4B3
:01263E002279
:0C263F00AB5EAA5FA960121552FDAF61EE
:10264B00A905122529AF0512241EAF0112241ED293
:04265B00A1C2C42232
:06233A008B5E8A5F8960E2
:102340007561C0756207E4FD7F8E12264BAF621582
:1023500062EF601DAB5E0560E560AA5F7002055F1D
:1023600014F9121539FDAF6112264B056105618024
:08237000DC7D807F8E02264B0C
:0623ED008B5E8A5F89602F
:1023F3007561C1756207AF621562EF601DAF61124F
:10240300262FAB5E0560E560AA5F7002055F14F9D5
:0A241300EF12157F0561056180DC02
:01241D00229C
:0622E1008B548A5589565A
:1022E700755781AF5712262F90000612261F9000B0
:1022F7000512261FAB54AA55A9569000041226258D
:10230700AB54AA55A956900003122625AB54AA55DB
:10231700A956900002122625AB54AA55A95690003B
:1023270001122625AB54AA55A956EF12157F05575A
:02233700055748
:012339002281
:0620B3008B5E8A5F89606C
:1020B900756180E4FD7F8E12264B90000612263F43
:1020C9000561056190000512263F05610561AB5E5A
:1020D900AA5FA96090000412264505610561AB5EFF
:1020E900AA5FA96090000312264505610561AB5EF0
:1020F900AA5FA96090000212264505610561AB5EE1
:10210900AA5FA96090000112264505610561AB5ED1
:10211900AA5FA960121539FDAF6112264B05610549
:08212900617D807F8E02264BD0
:061E1F008B538A54895523
:101E25005395F95396F953B3EF53B4EFC2C4C2A116
:101E3500E4FD7F8E12264B7F8112262FEF30E707B8
:101E4500E4FD7F8012264B7DA67F9012264B7D8078
:101E55007F8E12264B7FE87E031225437B007A0096
:101E650079571223EDE4F556C3E55694077480942B
:101E7500805073E55690279B93FF74572556F8E6D7
:101E85006F605FE493AB53AA54A9559000061215F1
:101E95009190279CE49390000512159190279DE45D
:101EA5009390000412159190279EE49390000312DD
:101EB500159190279FE4939000021215919027A009
:101EC500E4939000011215919027A1E49312157FD8
:101ED500AB53AA54A9551220B37BFF7A27799B12DD
:061EE500233A055680823D
:011EEB0022D4
:102578003F065B4F666D7D077F6F777C395E7971AB
:102588003D767430101E38545C73675031783E1CA9
:0425980040480800AF
:03005C000113008D
:10267F00EF1FAA0670011E4A6013E4FCFDC3ED9420
:0D268F0058EC940250EA0DBD00010C80F0E3
:01269C00221B
:10275900538EFB538EF775D6DCE4F5D743AF0443AC
:052769008E10D2AF222A
:10244D00AB07EBFAEDFBE4FDEDC3941074809480C3
:10245D005018C2C2EA30E704D2B78002C2B7D2C266
:0E246D00EB25E0FBEA33FA0D80DEC2C1D2C1DE
:01247B00223E
:1024AB00D2C5747D2513F8E690257893FFAE13A85B
:1024BB00067401088002C333D8FCF4FD12244DC20C
:0B24CB00C50513E51364087002F5134B
:0124D60022E3
:1026F400E4FFEFC39408748094805009747D2FF82C
:0C27040076230F80ED7DFFE4FF02244DE2
:1025BE007F0A7E0012267F53B3D953B4D953B17F0D
:1025CE0053B27FC2B7C2C2C2C1D2C51226F402270D
:0125DE0059A3
:10192B008E118F12AB05AA047C007D0A1215C5EF30
:10193B004E7012787D7623087623087623AE11AF8E
:10194B0012FC0219F8AE11AF127C007D641215C5A2
:10195B00EF4E702A787D7623087623AE11AF12FCFA
:10196B007D641215C57E007F0ACFCDCFCECCCE12B3
:10197B0015C5787FA607AE11AF127C00806FAE1134
:10198B00AF127C037DE81215C5EF4E7006787D769D
:10199B0023801CAE11AF127C277D101215C57E0360
:1019AB007FE8CFCDCFCECCCE1215C5787DA607AEB6
:1019BB0011AF127C037DE81215C57E007F64CFCD7D
:1019CB00CFCECCCE1215C5787EA607AE11AF127C4A
:1019DB00007D641215C57E007F0ACFCDCFCECCCE55
:1019EB001215C5787FA607AE11AF127C007D0A12C7
:1019FB0015C57880A6057C007D0AAF03AE021215D3
:101A0B00C5EF4E700D78817623087623087623FC7C
:101A1B0080337C007D64AF03AE021215C5EF4E70B0
:101A2B002D78817623087623FC7D64AF03AE0212FA
:101A3B0015C57E007F0ACFCDCFCECCCE1215C57883
:101A4B0083A6077C007D0AAF03AE02021B0A7C0350
:101A5B007DE8AF03AE021215C5EF4E704678817666
:101A6B00237C037DE8AF03AE021215C57E007F64B5
:101A7B00CFCDCFCECCCE1215C57882A6077C007DFC
:101A8B0064AF03AE021215C57E007F0ACFCDCFCE59
:101A9B00CCCE1215C57883A6077C007D0AAF03AEAA
:101AAB0002805C7C277D10AF03AE021215C57E034E
:101ABB007FE8CFCDCFCECCCE1215C57881A6077CD3
:101ACB00037DE8AF03AE021215C57E007F64CFCD58
:101ADB00CFCECCCE1215C57882A6077C007D64AF25
:101AEB0003AE021215C57E007F0ACFCDCFCECCCE72
:101AFB001215C57883A607AE02AF037C007D0A12D0
:071B0B0015C57884A6052230
:03005F0001140089
:04259C007F0A7E0034
:1025A000EF1FAA0670011E4A6013E4FCFDC3ED9400
:0D25B00058EC940250EA0DBD00010C80F0C3
:0125BD0022FB
:0727A20053B18353B28322FF
:101B1200E4F573FB43B01CE5B044E3F571F4606B8C
:101B220012259CE5B044E3F571F4605C857172E4C2
:101B3200F514E571F4601B12259CE5B044E3F571E0
:101B4200AF140514D3EF94327480948040E47B0187
:101B520080E0E5722409601524FC601E240C7025C7
:101B6200EB700575730C801D75730F8018EB700593
:101B720075730D8010757310800BEB700575730E05
:101B82008003757311AF73227F002253B0E343B019
:101B920060E5B0449FF571F47003021C4712259C66
:101BA200E5B0449FF571F47003021C4453B0EF4357
:101BB200B00CE5B0449FF571F46022E571F4600B5E
:101BC200857172E5B0449FF57180F0E57224416041
:101BD2000924E07008757306800375730953B0F722
:101BE20043B014E5B0449FF571F46022E571F460EE
:101BF2000B857172E5B0449FF57180F0E572244166
:101C0200600924E07008757307800375730A53B086
:101C1200FB43B018E5B0449FF571F46022E571F41E
:101C2200600B857172E5B0449FF57180F0E5722416
:101C320041600924E07008757308800375730BAF67
:071C420073227F00227F00E6
:011C49002278
:102782004D61696E4D656E750057656C636F6D6561
:02279200210024
:0F26BB00C2C17F0A7E001226CAD2B77F0A7E00F4
:0E26CA00EF1FAC0670011E4C60030080F3226F
:10269D00EF1FAA0670011E4A6013E4FCFDC3ED9402
:0D26AD0058EC940250EA0DBD00010C80F0C5
:0126BA0022FD
:092710007F057E0012269D7F3832
:10271900AD07C2B7C2C21226BB8D801226C6C2B788
:01272900228D
:08272A001227191224E67F2F8B
:10273200AD07C2B7D2C21226BB8D801226C6C2B75F
:012742002274
:0F24D70012155254F0C4540FFF1227431227322C
:1024E6007580FFC2B7C2C2D2C11226BDAD80122608
:0A24F600C6C2B7ED5480648060E9AF
:0125000022B8
:02247C00AB07AC
:10247E00EB54C064C070047BC080027B801224E6E3
:10248E00AF03122719E4FBEBC394107480948050B1
:0C249E000B1224E67F201227320B80EB8B
:0124AA00220F
:102378008F798B7A8A7B897C12247C1224E6AF7948
:10238800122719AB7AAA7BA97C121539601D122471
:10239800E6AB7AAA7BA97C121539FF1227327401A1
:0C23A800257CF57CE4357BF57B80D82299
:10228600E4F593F59453B3F953B4F953B17F53B2CC
:102296007F7F0FFE1227141227101227101224E632
:1022A6007F381227191224E67F081227191224E60E
:1022B6007F011227191224E67F061227191224E637
:1022C6007F0C1227197BFF7A2779827F8312237866
:0B22D6007BFF7A27798B7FC4022378FE
:082029008B088A09890A8D0B5E
:10203100750D00750E01E4F50CC3E50C9402748076
:1020410094805013AE0DAF0E7C007D0A1215B38E35
:102051000D8F0E050C80E2E4F50CD3E50E9400E53E
:102061000D9400404C050CAF0B7E00AC0DAD0E1273
:1020710015C5EF4E600BEF2430AB08AA09A90A8001
:1020810008AB08AA09A90A743012157F7401250A40
:10209100F50AE43509F509E50B850EF08485F00BA9
:1020A100AE0DAF0E7C007D0A1215C58E0D8F0E8010
:0120B100A985
:0120B200220B
:1027430053070FEFC3940A74809480EF500424302E
:06275300FF222437FF22E3
:1021AE00EF14B4070050659021C375F003A4C583E6
:1021BE0025F0C583730221D80221DF0221E6022118
:1021CE00ED0221F40221FB0222021224E67FC380DB
:1021DE00281224E67FC680211224E67FC9801A12B7
:1021EE0024E67FCC80131224E67F83800C1224E633
:1021FE007F8680051224E67F891227191224E67F36
:0D220E00201227321224E67F2012273222F0
:101C4A00EF14B407004003021D3B901C6275F003B9
:101C5A00A4C58325F0C58373021C77021C8E021C5F
:101C6A00A8021CC2021CD6021CEF021D101224E696
:101C7A007FC31227191224E61215391224DA121513
:101C8A0039021D321224E67FC512272A1224E69051
:101C9A0000021224D7900002121552021D32122499
:101CAA00E67FC812272A1224E69000031224D7904E
:101CBA000003121552021D321224E67FCB12272A84
:101CCA001224E6900001121552021D321224E67FF8
:101CDA00831227191224E69000041224D7900004D4
:101CEA0012155280431224E67F851227191224E620
:101CFA007F3A1227321224E69000051224D7900068
:101D0A000512155280221224E67F881227191224FE
:101D1A00E67F3A1227321224E69000061215521272
:101D2A0024DC900006121552540FFF122743122783
:021D3A00322253
:10265F00AB54AA55A956121552FF7B007A00795731
:10266F00EFC4540F75F00AA4FEEF540F2E02157F1E
:10276E00EF75F00A84C454F0FEEF75F00A84E5F0BC
:04277E004E02157F73
:0616E8008B548A5589565F
:1016EE003002047D0180027DFFEF14B40700400339
:1016FE0002192A90170F75F003A4C58325F0C58330
:10170E007302172402175902179102184102187B0F
:06171E000218B50218EEEE
:10172400AB54AA55A956121539122668ED2557F55A
:10173400577E00D39463748094804005E4F5578009
:101744000BC3EE648094805003755763AB54AA5561
:02175400A95694
:0317560002192550
:1017590090000212265FED2557F557FF7E00D394BE
:101769000C748094804005755701800EC3EF940175
:10177900EE64809480500375570CAB54E5562402EF
:05178900F9E43555FAFA
:03178E0002192518
:1017910090000312265FED2557F557AB54AA55A9C2
:1017A10056900002121552FF7B007A0079581226DA
:1017B1006FAF587E00EF64027020E557FB7A00D3CB
:1017C100941C7480948040028055C3EB9401EA64B8
:1017D100809480505D75571C8058EF64044E6011F1
:1017E100AF58EF6406600AEF64096005EF640B709F
:1017F10020AF577E00D3EF941E7480948040028006
:101801001EC3EF9401EE64809480502675571E80AC
:1018110021AF577E00D3EF941F74809480400575EB
:101821005701800EC3EF9401EE64809480500375DC
:0D183100571FAB54E5562403F9E43555FA72
:03183E0002192567
:10184100AB54AA55A956900001122665ED2557F50E
:10185100577E00D39406748094804005E4F5578048
:101861000BC3EE648094805003755706AB54E55664
:071871002401F9E43555FAEA
:031878000219252D
:10187B00AB54AA55A956900004122665ED2557F5D1
:10188B00577E00D39417748094804005E4F55780FD
:10189B000BC3EE648094805003755717AB54E55619
:0718AB002404F9E43555FAAD
:0318B200021925F3
:1018B500AB54AA55A956900005122665ED2557F596
:1018C500577E00D3943B748094804005E4F557809F
:1018D5000BC3EE64809480500375573BAB54E556BB
:0718E5002405F9E43555FA72
:0218EC00803743
:1018EE00AB54AA55A956900006122665ED2557F55C
:1018FE00577E00D3943B748094804005E4F5578066
:10190E000BC3EE64809480500375573BAB54E55681
:0C191E002406F9E43555FAAF5712276E85
:01192A00229A
:101EEC00121539FFC4540F2430F554EF540F24301D
:101EFC00F55575562F900002121552FFC4540F243D
:101F0C0030F557EF540F2430F55875592F900003C6
:101F1C00121552FFC4540F2430F55AEF540F2430CD
:101F2C00F55B755C2F900001121552540F2430F59F
:101F3C005DE4F55E900004121552FFC4540F24307A
:101F4C00F55FEF540F2430F56075613A900005127F
:101F5C001552FFC4540F2430F562EF540F2430F5A2
:101F6C006375643A900006121552FFC4540F243066
:101F7C00F565EF540F2430F566E4F567FB7A0079CC
:101F8C005F7F831223787B007A0079547FC302230E
:011F9C0078CC
:03000000021F9D3F
:0C1F9D00787FE4F6D8FD758184021FE413
:10144300E709F608DFFA8046E709F208DFFA803E8B
:1014530088828C83E709F0A3DFFA8032E309F60878
:10146300DFFA8078E309F208DFFA807088828C83E0
:10147300E309F0A3DFFA806489828A83E0A3F60894
:10148300DFFA805889828A83E0A3F208DFFA804C6E
:1014930080D280FA80C680D4806980F28033801045
:1014A30080A680EA809A80A880DA80E280CA8033AE
:1014B30089828A83ECFAE493A3C8C582C8CCC58326
:1014C300CCF0A3C8C582C8CCC583CCDFE9DEE780F6
:1014D3000D89828A83E493A3F608DFF9ECFAA9F075
:1014E300EDFB2289828A83ECFAE0A3C8C582C8CCCB
:1014F300C583CCF0A3C8C582C8CCC583CCDFEADEE4
:10150300E880DB89828A83E493A3F208DFF980CC45
:1015130088F0EF60010E4E60C388F0ED2402B4043E
:101523000050B9F582EB2402B4040050AF232345E5
:0615330082239014937363
:10153900BB010689828A83E0225002E722BBFE02B0
:09154900E32289828A83E49322E3
:10155200BB010CE58229F582E5833AF583E022504E
:1015620006E92582F8E622BBFE06E92582F8E22298
:0D157200E58229F582E5833AF583E49322B2
:10157F00BB010689828A83F0225002F722BBFE014B
:02158F00F32245
:10159100F8BB010DE58229F582E5833AF583E8F090
:1015A100225006E92582C8F622BBFE05E92582C83C
:0215B100F22224
:1015B300EF8DF0A4A8F0CF8CF0A428CE8DF0A42E4C
:0215C300FE2206
:1015C500BC000BBE0029EF8DF084FFADF022E4CC0A
:1015D500F875F008EF2FFFEE33FEEC33FCEE9DECD3
:1015E500984005FCEE9DFE0FD5F0E9E4CEFD22ED19
:1015F500F8F5F0EE8420D21CFEADF075F008EF2F63
:10160500FFED33FD4007985006D5F0F222C398FD53
:051615000FD5F0EA22F0
:10161A0075F008758200EF2FFFEE33FECD33CDCC87
:10162A0033CCC58233C5829BED9AEC99E58298400A
:10163A000CF582EE9BFEED9AFDEC99FC0FD5F0D6E7
:10164A00E4CEFBE4CDFAE4CCF9A88222B800C1B911
:10165A000059BA002DEC8BF084CFCECDFCE5F0CB4F
:10166A00F97818EF2FFFEE33FEED33FDEC33FCEB88
:10167A0033FB10D703994004EB99FB0FD8E5E4F943
:10168A00FA227818EF2FFFEE33FEED33FDEC33FC30
:10169A00C933C910D7059BE99A4007EC9BFCE99A24
:1016AA00F90FD8E0E4C9FAE4CCFB2275F010EF2F69
:1016BA00FFEE33FEED33FDCC33CCC833C810D70769
:1016CA009BEC9AE899400AED9BFDEC9AFCE899F8A4
:0E16DA000FD5F0DAE4CDFBE4CCFAE4C8F92237
:101FA9000223B4E493A3F8E493A34003F68001F277
:101FB90008DFF48029E493A3F85407240CC8C33339
:101FC900C4540F4420C8834004F456800146F6DF08
:101FD900E4800B010204081020408090000EE47E8A
:101FE900019360BCA3FF543F30E509541FFEE493FD
:101FF900A360010ECF54C025E060A840B8E493A3C4
:10200900FAE493A3F8E493A3C8C582C8CAC583CAEE
:10201900F0A3C8C582C8CAC583CADFE9DEE780BEA6
:01006200009D
:00000001FF
